:020000040000fa
:080000000002040000000000f2
:020000040000fa
:04000800fa020000f8
:020000040000fa
:04000c0000030000ed
:020000040000fa
:040010001c030000cd
:020000040000fa
:0400140006030000df
:020000040000fa
:040018000c030000d5
:020000040000fa
:04001c0012030000cb
:020000040000fa
:0400200020030000b9
:020000040000fa
:0400240018030000bd
:020000040000fa
:0400280018030000b9
:020000040000fa
:04002c0018030000b5
:020000040000fa
:0400300018030000b1
:020000040000fa
:0400340018030000ad
:020000040000fa
:0400380018030000a9
:020000040000fa
:04003c0018030000a5
:020000040000fa
:0400400018030000a1
:020000040000fa
:04004400180300009d
:020000040000fa
:040048001803000099
:020000040000fa
:04004c001803000095
:020000040000fa
:040050001803000091
:020000040000fa
:04005400180300008d
:020000040000fa
:04005800240300007d
:020000040000fa
:04005c001803000085
:020000040000fa
:040060001803000081
:020000040000fa
:04006400180300007d
:020000040000fa
:040068001803000079
:020000040000fa
:04006c001803000075
:020000040000fa
:040070001803000071
:020000040000fa
:04007400180300006d
:020000040000fa
:040078001803000069
:020000040000fa
:04007c001803000065
:020000040000fa
:040080001803000061
:020000040000fa
:04008400180300005d
:020000040000fa
:040088001803000059
:020000040000fa
:04008c001803000055
:020000040000fa
:040090001803000051
:020000040000fa
:04009400180300004d
:020000040000fa
:040098001803000049
:020000040000fa
:04009c001803000045
:020000040000fa
:0400a0001803000041
:020000040000fa
:0400a400180300003d
:020000040000fa
:0400a8001803000039
:020000040000fa
:0400ac001803000035
:020000040000fa
:0400b0001803000031
:020000040000fa
:0400b400180300002d
:020000040000fa
:0400b8001803000029
:020000040000fa
:0400bc001803000025
:020000040000fa
:0400c0001803000021
:020000040000fa
:0400c400180300001d
:020000040000fa
:0400c8001803000019
:020000040000fa
:0400cc001803000015
:020000040000fa
:0400d0001803000011
:020000040000fa
:0400d400180300000d
:020000040000fa
:0400d8001803000009
:020000040000fa
:0400dc001803000005
:020000040000fa
:0400e0001803000001
:020000040000fa
:0400e40018030000fd
:020000040000fa
:0400e80018030000f9
:020000040000fa
:0400ec0018030000f5
:020000040000fa
:0400f00018030000f1
:020000040000fa
:0400f40018030000ed
:020000040000fa
:0400f80018030000e9
:020000040000fa
:0400fc0018030000e5
:020000040000fa
:0401000018030000e0
:020000040000fa
:0401040018030000dc
:020000040000fa
:0401080018030000d8
:020000040000fa
:04010c0018030000d4
:020000040000fa
:0401100018030000d0
:020000040000fa
:0401140018030000cc
:020000040000fa
:0401180018030000c8
:020000040000fa
:04011c0018030000c4
:020000040000fa
:0401200018030000c0
:020000040000fa
:0401240018030000bc
:020000040000fa
:0401280018030000b8
:020000040000fa
:04012c0018030000b4
:020000040000fa
:0401300018030000b0
:020000040000fa
:0401340018030000ac
:020000040000fa
:0401380018030000a8
:020000040000fa
:04013c0018030000a4
:020000040000fa
:0401400018030000a0
:020000040000fa
:04014400180300009c
:020000040000fa
:040148001803000098
:020000040000fa
:04014c001803000094
:020000040000fa
:040150001803000090
:020000040000fa
:04015400180300008c
:020000040000fa
:040158001803000088
:020000040000fa
:04015c001803000084
:020000040000fa
:040160001803000080
:020000040000fa
:04016400180300007c
:020000040000fa
:040168001803000078
:020000040000fa
:04016c001803000074
:020000040000fa
:040170001803000070
:020000040000fa
:04017400180300006c
:020000040000fa
:040178001803000068
:020000040000fa
:04017c001803000064
:020000040000fa
:040180001803000060
:020000040000fa
:04018400180300005c
:020000040000fa
:040188001803000058
:020000040000fa
:04018c001803000054
:020000040000fa
:040190001803000050
:020000040000fa
:04019400180300004c
:020000040000fa
:040198001803000048
:020000040000fa
:04019c001803000044
:020000040000fa
:0401a0001803000040
:020000040000fa
:0401a400180300003c
:020000040000fa
:0401a8001803000038
:020000040000fa
:0401ac001803000034
:020000040000fa
:0401b0001803000030
:020000040000fa
:0401b400180300002c
:020000040000fa
:0401b8001803000028
:020000040000fa
:0401bc001803000024
:020000040000fa
:0401c0001803000020
:020000040000fa
:0401c400180300001c
:020000040000fa
:0401c8001803000018
:020000040000fa
:0401cc001803000014
:020000040000fa
:0401d0001803000010
:020000040000fa
:0401d400180300000c
:020000040000fa
:0401d8001803000008
:020000040000fa
:0401dc001803000004
:020000040000fa
:0401e0001803000000
:020000040000fa
:0401e40018030000fc
:020000040000fa
:0401e80018030000f8
:020000040000fa
:0401ec0018030000f4
:020000040000fa
:0401f00018030000f0
:020000040000fa
:0401f40018030000ec
:020000040000fa
:0401f80018030000e8
:020000040000fa
:0401fc0018030000e4
:020000040000fa
:0402000018030000df
:020000040000fa
:0402040018030000db
:020000040000fa
:0402080018030000d7
:020000040000fa
:04020c0018030000d3
:020000040000fa
:0402100018030000cf
:020000040000fa
:0402140018030000cb
:020000040000fa
:0402180018030000c7
:020000040000fa
:04021c0018030000c3
:020000040000fa
:0402200018030000bf
:020000040000fa
:0402240018030000bb
:020000040000fa
:0402280018030000b7
:020000040000fa
:04022c0018030000b3
:020000040000fa
:0402300018030000af
:020000040000fa
:0402340018030000ab
:020000040000fa
:0402380018030000a7
:020000040000fa
:04023c0018030000a3
:020000040000fa
:04024000180300009f
:020000040000fa
:04024400180300009b
:020000040000fa
:040248001803000097
:020000040000fa
:04024c001803000093
:020000040000fa
:04025000180300008f
:020000040000fa
:04025400180300008b
:020000040000fa
:040258001803000087
:020000040000fa
:04025c001803000083
:020000040000fa
:04026000180300007f
:020000040000fa
:04026400180300007b
:020000040000fa
:100400000f0021000eff27000e01880000000000f1
:10041000000020000000e000020032000001200087
:1004200020028800140007008b0007000000e00095
:1004300003003a0000002000010020000200370005
:100440000000200001002000810f70000100320038
:100450000f000700000020000000e0000200320052
:100460000000020000000000bc04020000000000c8
:100470000040da000000fe00600020000000e00004
:1004800002003200002020009001880000000600d9
:10049000a1028800800478000000eb001f003700f4
:1004a000e284440054a0b4009905ba00e2844400f8
:1004b00054a0b4009906ba00e284440054a0b400e9
:1004c0000006eb00476fde00fd07b200ae018800ba
:1004d000636ce10003003a000ad801000000eb0061
:1004e0000e003700606ce10008003a00004deb00a0
:1004f0000a05e800020039003420ec000af0a000f0
:100500008b05e900f9ff3e00040037006168e10057
:10051000010032000086eb000b00070019c7ba008b
:100520000e04e0001905ba0003003a000a00e000da
:10053000dbff3a0000000600fe07b200ae028800b2
:100540008a047800f5ff37000cd0a300e20f4d00bd
:100550001c003b0089027800354dba000a05e8000e
:10056000020039003420ec000af0a0008b05e900fd
:100570000f003200254dba000a05e80002003900dc
:100580003420ec000af0a0008b05e90008003200de
:100590000c00e0000600320015cdba000a05e800a4
:1005a000020039003420ec000af0a0008b05e900bd
:1005b0008984e80054a0b4000b00e000e2ff3a0098
:1005c000000006009902ba00055d78008b05e9007d
:1005d000f7ff3200c82ade00055d78008b05e900d0
:1005e000f3ff32000c00e000f1ff320019ddba0029
:1005f000eeff37000000fa00c028a900ffff370017
:100600000000fa00c068a900ffff37000000fa00f0
:10061000c048a900ffff37000000fa00c088a90009
:10062000ffff37000000fa00c0a8a900ffff370055
:100630000000fa00ffff37000000fa00ffff37005c
:100640000000fa00ffff37000000fa000188a9004f
:0c0650000080fa000040060000000500d9
:020000040000fa
:0c065c0050450000525200000000000059
:020000040000fa
:100668000600fa000e81e8000009780064004700df
:10067800010878000000eb00000f78000b0037003d
:100688009e0078000e80e80010007800010040000d
:10069800104078000000fb002011880010002000a6
:1006a800010020004a0007001e0fe8009e007800a5
:1006b80064004700100078000000e900808f5000b7
:1006c800efff3900d0002000201188000080fa00d8
:1006d800000006001200fa000040eb00004f78000e
:1006e80010118000640060000000e0000d0032007e
:1006f80060542400212525000e81e8000089be00f1
:100708008040eb0066004700014878000e80e80052
:1007180041002000d2ff07002242a90010c0b30008
:10072800004f780010118000680060000000e000b1
:100738000a003200e7004700e232280004000900fe
:10074800b25878006700470041002000c4ff070046
:100758002262a90010c0b300004f78001e40780044
:100768000004e0000100320014003700311180005d
:100778000e00e80001487800101180006200600057
:100788000000e0000b003200f05424002125250071
:100798006c0147000089be008040eb0070004700f4
:1007a800014878006c00470041002000acff0700ba
:1007b8002222a9000e00e800104078000080fa000c
:1007c800000006000000fa000080fa0000000600a1
:1007d8000c00fa00680147000089be006a00470063
:1007e80090007800a00f20008089b90068004700b9
:1007f80010007800e000b9000001410068004700df
:1008080090007800a00f20000008b8000101410006
:1008180082007800640147000089be006401470037
:100828000089be006000b800008fbe0004003700d9
:1008380012002000030020001e0f41005e974900af
:100848006400470090009000100078001e017800b6
:100858009e019000800f5100818f5900f4ff3900ec
:100868000080fa00000006000400fa006000b800ea
:10087800008fbe0004003700120020000300200093
:100888001e0f41005e974900f0082d00310020003e
:100898001e0178009e019000800f5100818f590041
:1008a800f5ff36000080fa00000006000000fa009c
:1008b80026000700020007000080fa00000006007a
:1008c8000000fa0021e2a90091348000f00f2c000a
:1008d800008060000080a000903488002002a900f9
:1008e8000111800090ff2f00008060000011880037
:1008f80020a2a9002062a900500020004011880011
:1009080023a2a90023e2a9000188a9002188a80040
:10091800508ea8002136800000f82f0080806000eb
:1009280040062000010070002036880022c2a9007d
:1009380022e2a90021e2a8002342a8000168a90038
:100948002168a9000080fa00000006000000fa00f3
:100958000e2eef001e2eef002e2eef003e2eef0083
:100968004e2eef006e2eef000080fa000000060009
:100978000210fa0093ff0700ccff07000000eb000d
:10098800000f78001100370052ff07009e80e80032
:1009980081004700804878001e0fe8001e00e9002b
:1009a8000080e8000000470010407800ea4f50003f
:1009b80006003a000e80e8009e00780028ff070035
:1009c8000000eb00000f78000400370010118000d1
:1009d800610060000000e000ebff3a00000000004a
:0409e800faff3700db
:00000001FF
